{
  "contractName": "PlayerScore",
  "abi": [
    {
      "constant": true,
      "inputs": [
        {
          "name": "",
          "type": "uint256"
        }
      ],
      "name": "TopScores",
      "outputs": [
        {
          "name": "player",
          "type": "address"
        },
        {
          "name": "score",
          "type": "int256"
        }
      ],
      "payable": false,
      "stateMutability": "view",
      "type": "function"
    },
    {
      "constant": true,
      "inputs": [
        {
          "name": "",
          "type": "address"
        }
      ],
      "name": "Scores",
      "outputs": [
        {
          "name": "",
          "type": "int256"
        }
      ],
      "payable": false,
      "stateMutability": "view",
      "type": "function"
    },
    {
      "constant": false,
      "inputs": [
        {
          "name": "score",
          "type": "int256"
        }
      ],
      "name": "SetScore",
      "outputs": [],
      "payable": false,
      "stateMutability": "nonpayable",
      "type": "function"
    },
    {
      "constant": true,
      "inputs": [],
      "name": "GetTopScoresCount",
      "outputs": [
        {
          "name": "",
          "type": "uint256"
        }
      ],
      "payable": false,
      "stateMutability": "view",
      "type": "function"
    }
  ],
  "bytecode": "0x608060405234801561001057600080fd5b50610567806100206000396000f300608060405260043610610062576000357c0100000000000000000000000000000000000000000000000000000000900463ffffffff1680631b5eb19014610067578063747b24b7146100945780638730925f14610108578063a4af7f641461015f575b600080fd5b34801561007357600080fd5b506100926004803603810190808035906020019092919050505061018a565b005b3480156100a057600080fd5b506100bf60048036038101908080359060200190929190505050610494565b604051808373ffffffffffffffffffffffffffffffffffffffff1673ffffffffffffffffffffffffffffffffffffffff1681526020018281526020019250505060405180910390f35b34801561011457600080fd5b50610149600480360381019080803573ffffffffffffffffffffffffffffffffffffffff1690602001909291905050506104e7565b6040518082815260200191505060405180910390f35b34801561016b57600080fd5b506101746104ff565b6040518082815260200191505060405180910390f35b600061019461050b565b60008060006101a161050b565b6101a961050b565b600160003373ffffffffffffffffffffffffffffffffffffffff1673ffffffffffffffffffffffffffffffffffffffff168152602001908152602001600020549650878712156102385787600160003373ffffffffffffffffffffffffffffffffffffffff1673ffffffffffffffffffffffffffffffffffffffff168152602001908152602001600020819055505b600560008054905010156102fa5760408051908101604052803373ffffffffffffffffffffffffffffffffffffffff1681526020018981525095506000869080600181540180825580915050906001820390600052602060002090600202016000909192909190915060008201518160000160006101000a81548173ffffffffffffffffffffffffffffffffffffffff021916908373ffffffffffffffffffffffffffffffffffffffff1602179055506020820151816001015550505061048a565b60008081548110151561030957fe5b906000526020600020906002020160010154945060009350600192505b6000805490508310156103e15760008381548110151561034257fe5b90600052602060002090600202016040805190810160405290816000820160009054906101000a900473ffffffffffffffffffffffffffffffffffffffff1673ffffffffffffffffffffffffffffffffffffffff1673ffffffffffffffffffffffffffffffffffffffff168152602001600182015481525050915081602001518513156103d457816020015194508293505b8280600101935050610326565b878512156104895760408051908101604052803373ffffffffffffffffffffffffffffffffffffffff1681526020018981525090508060008581548110151561042657fe5b906000526020600020906002020160008201518160000160006101000a81548173ffffffffffffffffffffffffffffffffffffffff021916908373ffffffffffffffffffffffffffffffffffffffff160217905550602082015181600101559050505b5b5050505050505050565b6000818154811015156104a357fe5b90600052602060002090600202016000915090508060000160009054906101000a900473ffffffffffffffffffffffffffffffffffffffff16908060010154905082565b60016020528060005260406000206000915090505481565b60008080549050905090565b6040805190810160405280600073ffffffffffffffffffffffffffffffffffffffff1681526020016000815250905600a165627a7a723058201b4d19ac8562345c314ce133f4158977e7b8ad71e17643f7ac7bcd70e33a322a0029",
  "source": "pragma solidity ^0.4.21;\r\n\r\n// A contract to manage players' top scores.\r\ncontract PlayerScore\r\n{\r\n    // Represents the maximum amount of\r\n    // stored top scores.\r\n    uint constant m_maxScores = 5;\r\n    \r\n    // Represents the player-score entry.\r\n    struct Score\r\n    {\r\n        address player;\r\n        int score;\r\n    }\r\n    \r\n    /// <summary>\r\n    /// Most relevant scores stored in this contract.\r\n    /// </summary>\r\n    Score[] public TopScores;\r\n    \r\n    // Maps each player with its own score.\r\n    mapping(address=>int) public Scores;\r\n    \r\n    /// <summary>\r\n    /// Sets the score for current sender.\r\n    /// If no score exists, a new one is created.\r\n    /// </summary>\r\n    function SetScore(int score) public\r\n    {\r\n        int currentScore = Scores[msg.sender];\r\n        \r\n        // Replace the old score with the new one\r\n        // if it is higher.\r\n        if(currentScore < score)\r\n        {\r\n            Scores[msg.sender] = score;\r\n        }\r\n        \r\n        // Now we populate the top scores array.\r\n        if(TopScores.length < m_maxScores)\r\n        {\r\n            // If we didn't reach yet the maximum stored\r\n            // scores amount, we simply add the new entry.\r\n            Score memory newScore = Score(msg.sender, score);\r\n            TopScores.push(newScore);\r\n        }\r\n        else\r\n        {\r\n            // If we reached the maximum stored scores amount,\r\n            // we have to verify if the new received score is\r\n            // higher than the lowest one in the top scores array.\r\n            int lowestScore = TopScores[0].score;\r\n            uint lowestScoreIndex = 0;\r\n            \r\n            // We search for the lowest stored score.\r\n            for(uint i = 1; i < TopScores.length; i++)\r\n            {\r\n                Score memory current = TopScores[i];\r\n                if(lowestScore > current.score)\r\n                {\r\n                    lowestScore = current.score;\r\n                    lowestScoreIndex = i;\r\n                }\r\n            }\r\n            \r\n            // Now we can check our new pushed score against\r\n            // the lowest one.\r\n            if(lowestScore < score)\r\n            {\r\n                Score memory newScoreToReplace = Score(msg.sender, score);\r\n                TopScores[lowestScoreIndex] = newScoreToReplace;\r\n            }\r\n        }\r\n    }\r\n    \r\n    /// <summary>\r\n    /// Get the amount of top scores.\r\n    /// </summary>\r\n    function GetTopScoresCount() view public returns (uint)\r\n    {\r\n        return TopScores.length;\r\n    }\r\n}",
  "sourcePath": "D:\\Lavori\\HIPR\\HIPR\\contracts\\Truffle\\contracts\\PlayerScore.sol",
  "compiler": {
    "name": "solc",
    "version": "0.4.24+commit.e67f0147.Emscripten.clang"
  },
  "schemaVersion": "2.0.0",
  "updatedAt": "2018-05-31T20:10:22.647Z"
}