{
  "contractName": "PuzzleManager",
  "abi": [
    {
      "constant": false,
      "inputs": [
        {
          "name": "metrics",
          "type": "string"
        }
      ],
      "name": "CreatePuzzle",
      "outputs": [
        {
          "name": "",
          "type": "uint256"
        }
      ],
      "payable": false,
      "stateMutability": "nonpayable",
      "type": "function"
    },
    {
      "constant": false,
      "inputs": [
        {
          "name": "puzzleId",
          "type": "uint256"
        },
        {
          "name": "metrics",
          "type": "string"
        }
      ],
      "name": "PushMetrics",
      "outputs": [
        {
          "name": "",
          "type": "bool"
        }
      ],
      "payable": false,
      "stateMutability": "nonpayable",
      "type": "function"
    },
    {
      "constant": true,
      "inputs": [
        {
          "name": "puzzleId",
          "type": "uint256"
        }
      ],
      "name": "CompareMetrics",
      "outputs": [
        {
          "name": "",
          "type": "bool"
        }
      ],
      "payable": false,
      "stateMutability": "view",
      "type": "function"
    },
    {
      "constant": true,
      "inputs": [
        {
          "name": "puzzleId",
          "type": "uint256"
        }
      ],
      "name": "GetPuzzleOriginalMetrics",
      "outputs": [
        {
          "name": "",
          "type": "string"
        }
      ],
      "payable": false,
      "stateMutability": "view",
      "type": "function"
    }
  ],
  "bytecode": "0x6080604052600060015534801561001557600080fd5b506106c9806100256000396000f300608060405260043610610062576000357c0100000000000000000000000000000000000000000000000000000000900463ffffffff1680636ba2b6bb146100675780637a04d994146100e4578063cbf08f0914610129578063de47634c146101cf575b600080fd5b34801561007357600080fd5b506100ce600480360381019080803590602001908201803590602001908080601f016020809104026020016040519081016040528093929190818152602001838380828437820191505050505050919291929050505061025a565b6040518082815260200191505060405180910390f35b3480156100f057600080fd5b5061010f600480360381019080803590602001909291905050506103b6565b604051808215151515815260200191505060405180910390f35b34801561013557600080fd5b5061015460048036038101908080359060200190929190505050610436565b6040518080602001828103825283818151815260200191508051906020019080838360005b83811015610194578082015181840152602081019050610179565b50505050905090810190601f1680156101c15780820380516001836020036101000a031916815260200191505b509250505060405180910390f35b3480156101db57600080fd5b5061024060048036038101908080359060200190929190803590602001908201803590602001908080601f01602080910402602001604051908101604052809392919081815260200183838082843782019150505050505091929192905050506104ed565b604051808215151515815260200191505060405180910390f35b60006102646105b6565b60806040519081016040528060015481526020013373ffffffffffffffffffffffffffffffffffffffff168152602001848152602001846040518082805190602001908083835b6020831015156102d057805182526020820191506020810190506020830392506102ab565b6001836020036101000a0380198251168184511680821785525050505050509050019150506040518091039020600019168152509050600180540160018190555080600080836000015181526020019081526020016000206000820151816000015560208201518160010160006101000a81548173ffffffffffffffffffffffffffffffffffffffff021916908373ffffffffffffffffffffffffffffffffffffffff16021790555060408201518160020190805190602001906103959291906105f8565b50606082015181600301906000191690559050508060000151915050919050565b60008060008084815260200190815260200160002090508060040160003373ffffffffffffffffffffffffffffffffffffffff1673ffffffffffffffffffffffffffffffffffffffff1681526020019081526020016000205460001916816003015460001916141561042b5760019150610430565b600091505b50919050565b60606000808381526020019081526020016000206002018054600181600116156101000203166002900480601f0160208091040260200160405190810160405280929190818152602001828054600181600116156101000203166002900480156104e15780601f106104b6576101008083540402835291602001916104e1565b820191906000526020600020905b8154815290600101906020018083116104c457829003601f168201915b50505050509050919050565b6000816040518082805190602001908083835b6020831015156105255780518252602082019150602081019050602083039250610500565b6001836020036101000a038019825116818451168082178552505050505050905001915050604051809103902060008085815260200190815260200160002060040160003373ffffffffffffffffffffffffffffffffffffffff1673ffffffffffffffffffffffffffffffffffffffff16815260200190815260200160002081600019169055506001905092915050565b60806040519081016040528060008152602001600073ffffffffffffffffffffffffffffffffffffffff16815260200160608152602001600080191681525090565b828054600181600116156101000203166002900490600052602060002090601f016020900481019282601f1061063957805160ff1916838001178555610667565b82800160010185558215610667579182015b8281111561066657825182559160200191906001019061064b565b5b5090506106749190610678565b5090565b61069a91905b8082111561069657600081600090555060010161067e565b5090565b905600a165627a7a7230582087ddb480357da2ac555d7c4dcd9ad9661ff265e1b154916b123fefb099690c540029",
  "source": "pragma solidity ^0.4.21;\r\n\r\n// Manages the puzzles generation and hashes comparing.\r\ncontract PuzzleManager\r\n{\r\n    // Represents a generated puzzle.\r\n    struct Puzzle\r\n    {\r\n        // The unique identifier for this puzzle.\r\n        uint Id;\r\n        // The owner who generated this puzzle.\r\n        address Owner;\r\n        // The original metrics associated to this puzzle.\r\n        string OriginalMetrics;\r\n        // The original hashed metrics associated to this puzzle.\r\n        bytes32 OriginalHash;\r\n        // The map of stored hashed metrics associated to this puzzle.\r\n        mapping(address => bytes32) Hashes;\r\n    }\r\n\r\n    // Internal generated puzzles.\r\n    mapping(uint => Puzzle) m_puzzles;\r\n\r\n    // The next available id.\r\n    uint m_currentId = 0;\r\n\r\n    /// <summary>\r\n    /// Creates a new puzzle with given metrics.\r\n    /// </summary>\r\n    function CreatePuzzle(string metrics) public returns(uint)\r\n    {\r\n        // Instantiate the new puzzle in memory.\r\n        Puzzle memory puzzle = Puzzle(m_currentId, msg.sender, metrics, keccak256(bytes(metrics)));\r\n\r\n        // Increment the current id for the next puzzle.\r\n        m_currentId = m_currentId + 1;\r\n\r\n        // Store the new generated puzzle.\r\n        m_puzzles[puzzle.Id] = puzzle;\r\n\r\n        return puzzle.Id;\r\n    }\r\n\r\n    /// <summary>\r\n    /// Pushes metrics for the given puzzle.\r\n    /// </summary>\r\n    function PushMetrics(uint puzzleId, string metrics) public returns(bool)\r\n    {\r\n        m_puzzles[puzzleId].Hashes[msg.sender] = keccak256(bytes(metrics));\r\n\r\n        return true;\r\n    }\r\n\r\n    /// <summary>\r\n    /// Compares the metrics associated to this address to the\r\n    /// original metrics, for the given puzzle id.\r\n    /// </summary>\r\n    function CompareMetrics(uint puzzleId) public view returns(bool)\r\n    {\r\n        Puzzle storage puzzle = m_puzzles[puzzleId];\r\n\r\n        if(puzzle.OriginalHash == puzzle.Hashes[msg.sender])\r\n        {\r\n            return true;\r\n        }\r\n        return false;\r\n    }\r\n\r\n    /// <summary>\r\n    /// Returns the original metrics associated to a given puzzle id.\r\n    /// </summary>\r\n    function GetPuzzleOriginalMetrics(uint puzzleId) public view returns(string)\r\n    {\r\n        return m_puzzles[puzzleId].OriginalMetrics;\r\n    }\r\n}",
  "sourcePath": "D:\\Lavori\\HIPR\\HIPR\\contracts\\Truffle\\contracts\\PuzzleManager.sol",
  "compiler": {
    "name": "solc",
    "version": "0.4.24+commit.e67f0147.Emscripten.clang"
  },
  "schemaVersion": "2.0.0",
  "updatedAt": "2018-06-01T13:14:55.184Z"
}